{
    "_format": "hh-sol-artifact-1",
    "contractName": "PakoToken",
    "sourceName": "contracts/pakotoken.sol",
    "abi": [
        {
            "inputs": [],
            "stateMutability": "nonpayable",
            "type": "constructor"
        },
        {
            "anonymous": false,
            "inputs": [
                {
                    "indexed": true,
                    "internalType": "address",
                    "name": "owner",
                    "type": "address"
                },
                {
                    "indexed": true,
                    "internalType": "address",
                    "name": "spender",
                    "type": "address"
                },
                {
                    "indexed": false,
                    "internalType": "uint256",
                    "name": "value",
                    "type": "uint256"
                }
            ],
            "name": "Approval",
            "type": "event"
        },
        {
            "anonymous": false,
            "inputs": [
                {
                    "indexed": true,
                    "internalType": "address",
                    "name": "buyer",
                    "type": "address"
                },
                {
                    "indexed": false,
                    "internalType": "uint256",
                    "name": "value",
                    "type": "uint256"
                },
                {
                    "indexed": false,
                    "internalType": "uint256",
                    "name": "tokens",
                    "type": "uint256"
                }
            ],
            "name": "BuyTokens",
            "type": "event"
        },
        {
            "anonymous": false,
            "inputs": [
                {
                    "indexed": true,
                    "internalType": "address",
                    "name": "previousOwner",
                    "type": "address"
                },
                {
                    "indexed": true,
                    "internalType": "address",
                    "name": "newOwner",
                    "type": "address"
                }
            ],
            "name": "OwnershipTransferred",
            "type": "event"
        },
        {
            "anonymous": false,
            "inputs": [
                {
                    "indexed": false,
                    "internalType": "address",
                    "name": "account",
                    "type": "address"
                }
            ],
            "name": "Paused",
            "type": "event"
        },
        {
            "anonymous": false,
            "inputs": [
                {
                    "indexed": true,
                    "internalType": "address",
                    "name": "from",
                    "type": "address"
                },
                {
                    "indexed": true,
                    "internalType": "address",
                    "name": "to",
                    "type": "address"
                },
                {
                    "indexed": false,
                    "internalType": "uint256",
                    "name": "value",
                    "type": "uint256"
                }
            ],
            "name": "Transfer",
            "type": "event"
        },
        {
            "anonymous": false,
            "inputs": [
                {
                    "indexed": false,
                    "internalType": "address",
                    "name": "account",
                    "type": "address"
                }
            ],
            "name": "Unpaused",
            "type": "event"
        },
        {
            "stateMutability": "payable",
            "type": "fallback"
        },
        {
            "inputs": [],
            "name": "_initialSupply",
            "outputs": [
                {
                    "internalType": "uint256",
                    "name": "",
                    "type": "uint256"
                }
            ],
            "stateMutability": "view",
            "type": "function"
        },
        {
            "inputs": [
                {
                    "internalType": "address",
                    "name": "owner",
                    "type": "address"
                },
                {
                    "internalType": "address",
                    "name": "spender",
                    "type": "address"
                }
            ],
            "name": "allowance",
            "outputs": [
                {
                    "internalType": "uint256",
                    "name": "",
                    "type": "uint256"
                }
            ],
            "stateMutability": "view",
            "type": "function"
        },
        {
            "inputs": [
                {
                    "internalType": "address",
                    "name": "spender",
                    "type": "address"
                },
                {
                    "internalType": "uint256",
                    "name": "amount",
                    "type": "uint256"
                }
            ],
            "name": "approve",
            "outputs": [
                {
                    "internalType": "bool",
                    "name": "",
                    "type": "bool"
                }
            ],
            "stateMutability": "nonpayable",
            "type": "function"
        },
        {
            "inputs": [
                {
                    "internalType": "address",
                    "name": "account",
                    "type": "address"
                }
            ],
            "name": "balanceOf",
            "outputs": [
                {
                    "internalType": "uint256",
                    "name": "",
                    "type": "uint256"
                }
            ],
            "stateMutability": "view",
            "type": "function"
        },
        {
            "inputs": [
                {
                    "internalType": "address",
                    "name": "account",
                    "type": "address"
                },
                {
                    "internalType": "uint256",
                    "name": "amount",
                    "type": "uint256"
                }
            ],
            "name": "burnToken",
            "outputs": [],
            "stateMutability": "nonpayable",
            "type": "function"
        },
        {
            "inputs": [],
            "name": "buyToken",
            "outputs": [
                {
                    "internalType": "uint256",
                    "name": "",
                    "type": "uint256"
                },
                {
                    "internalType": "string",
                    "name": "",
                    "type": "string"
                }
            ],
            "stateMutability": "payable",
            "type": "function"
        },
        {
            "inputs": [],
            "name": "decimals",
            "outputs": [
                {
                    "internalType": "uint8",
                    "name": "",
                    "type": "uint8"
                }
            ],
            "stateMutability": "view",
            "type": "function"
        },
        {
            "inputs": [
                {
                    "internalType": "address",
                    "name": "spender",
                    "type": "address"
                },
                {
                    "internalType": "uint256",
                    "name": "subtractedValue",
                    "type": "uint256"
                }
            ],
            "name": "decreaseAllowance",
            "outputs": [
                {
                    "internalType": "bool",
                    "name": "",
                    "type": "bool"
                }
            ],
            "stateMutability": "nonpayable",
            "type": "function"
        },
        {
            "inputs": [
                {
                    "internalType": "address",
                    "name": "account",
                    "type": "address"
                },
                {
                    "internalType": "uint256",
                    "name": "amount",
                    "type": "uint256"
                }
            ],
            "name": "generateToken",
            "outputs": [],
            "stateMutability": "nonpayable",
            "type": "function"
        },
        {
            "inputs": [],
            "name": "getCap",
            "outputs": [
                {
                    "internalType": "uint256",
                    "name": "",
                    "type": "uint256"
                }
            ],
            "stateMutability": "view",
            "type": "function"
        },
        {
            "inputs": [
                {
                    "internalType": "address",
                    "name": "spender",
                    "type": "address"
                },
                {
                    "internalType": "uint256",
                    "name": "addedValue",
                    "type": "uint256"
                }
            ],
            "name": "increaseAllowance",
            "outputs": [
                {
                    "internalType": "bool",
                    "name": "",
                    "type": "bool"
                }
            ],
            "stateMutability": "nonpayable",
            "type": "function"
        },
        {
            "inputs": [],
            "name": "name",
            "outputs": [
                {
                    "internalType": "string",
                    "name": "",
                    "type": "string"
                }
            ],
            "stateMutability": "view",
            "type": "function"
        },
        {
            "inputs": [],
            "name": "owner",
            "outputs": [
                {
                    "internalType": "address",
                    "name": "",
                    "type": "address"
                }
            ],
            "stateMutability": "view",
            "type": "function"
        },
        {
            "inputs": [],
            "name": "paused",
            "outputs": [
                {
                    "internalType": "bool",
                    "name": "",
                    "type": "bool"
                }
            ],
            "stateMutability": "view",
            "type": "function"
        },
        {
            "inputs": [
                {
                    "internalType": "address",
                    "name": "",
                    "type": "address"
                }
            ],
            "name": "pendingWithDrawals",
            "outputs": [
                {
                    "internalType": "uint256",
                    "name": "",
                    "type": "uint256"
                }
            ],
            "stateMutability": "view",
            "type": "function"
        },
        {
            "inputs": [],
            "name": "pricePerEth",
            "outputs": [
                {
                    "internalType": "uint256",
                    "name": "",
                    "type": "uint256"
                }
            ],
            "stateMutability": "view",
            "type": "function"
        },
        {
            "inputs": [],
            "name": "renounceOwnership",
            "outputs": [],
            "stateMutability": "nonpayable",
            "type": "function"
        },
        {
            "inputs": [
                {
                    "internalType": "uint256",
                    "name": "_newPrice",
                    "type": "uint256"
                }
            ],
            "name": "setPrice",
            "outputs": [
                {
                    "internalType": "string",
                    "name": "",
                    "type": "string"
                }
            ],
            "stateMutability": "nonpayable",
            "type": "function"
        },
        {
            "inputs": [],
            "name": "startTransaction",
            "outputs": [],
            "stateMutability": "nonpayable",
            "type": "function"
        },
        {
            "inputs": [],
            "name": "stopTransaction",
            "outputs": [],
            "stateMutability": "nonpayable",
            "type": "function"
        },
        {
            "inputs": [],
            "name": "symbol",
            "outputs": [
                {
                    "internalType": "string",
                    "name": "",
                    "type": "string"
                }
            ],
            "stateMutability": "view",
            "type": "function"
        },
        {
            "inputs": [],
            "name": "totalSupply",
            "outputs": [
                {
                    "internalType": "uint256",
                    "name": "",
                    "type": "uint256"
                }
            ],
            "stateMutability": "view",
            "type": "function"
        },
        {
            "inputs": [
                {
                    "internalType": "address",
                    "name": "to",
                    "type": "address"
                },
                {
                    "internalType": "uint256",
                    "name": "amount",
                    "type": "uint256"
                }
            ],
            "name": "transfer",
            "outputs": [
                {
                    "internalType": "bool",
                    "name": "",
                    "type": "bool"
                }
            ],
            "stateMutability": "nonpayable",
            "type": "function"
        },
        {
            "inputs": [
                {
                    "internalType": "address",
                    "name": "from",
                    "type": "address"
                },
                {
                    "internalType": "address",
                    "name": "to",
                    "type": "address"
                },
                {
                    "internalType": "uint256",
                    "name": "amount",
                    "type": "uint256"
                }
            ],
            "name": "transferFrom",
            "outputs": [
                {
                    "internalType": "bool",
                    "name": "",
                    "type": "bool"
                }
            ],
            "stateMutability": "nonpayable",
            "type": "function"
        },
        {
            "inputs": [
                {
                    "internalType": "address",
                    "name": "newOwner",
                    "type": "address"
                }
            ],
            "name": "transferOwnership",
            "outputs": [],
            "stateMutability": "nonpayable",
            "type": "function"
        },
        {
            "inputs": [],
            "name": "withDraw",
            "outputs": [],
            "stateMutability": "payable",
            "type": "function"
        },
        {
            "stateMutability": "payable",
            "type": "receive"
        }
    ],
    "bytecode": "0x60806040523480156200001157600080fd5b506040518060400160405280600981526020017f50616b6f546f6b656e00000000000000000000000000000000000000000000008152506040518060400160405280600481526020017f50616b6f0000000000000000000000000000000000000000000000000000000081525081600390805190602001906200009692919062000412565b508060049080519060200190620000af92919062000412565b505050620000d2620000c6620001b860201b60201c565b620001c060201b60201c565b6000600560146101000a81548160ff021916908315150217905550620000fd6200028660201b60201c565b600a6200010b919062000602565b620186a06200011b91906200073f565b600981905550620001316200028660201b60201c565b600a6200013f919062000602565b629896806200014f91906200073f565b60088190555062000169336009546200028f60201b60201c565b6064600a8190555033600b60006101000a81548173ffffffffffffffffffffffffffffffffffffffff021916908373ffffffffffffffffffffffffffffffffffffffff16021790555062000881565b600033905090565b6000600560009054906101000a900473ffffffffffffffffffffffffffffffffffffffff16905081600560006101000a81548173ffffffffffffffffffffffffffffffffffffffff021916908373ffffffffffffffffffffffffffffffffffffffff1602179055508173ffffffffffffffffffffffffffffffffffffffff168173ffffffffffffffffffffffffffffffffffffffff167f8be0079c531659141344cd1fd0a4f28419497f9722a3daafe3b4186f6b6457e060405160405180910390a35050565b60006012905090565b600073ffffffffffffffffffffffffffffffffffffffff168273ffffffffffffffffffffffffffffffffffffffff16141562000302576040517f08c379a0000000000000000000000000000000000000000000000000000000008152600401620002f990620004fa565b60405180910390fd5b62000316600083836200040860201b60201c565b80600260008282546200032a91906200054a565b92505081905550806000808473ffffffffffffffffffffffffffffffffffffffff1673ffffffffffffffffffffffffffffffffffffffff16815260200190815260200160002060008282546200038191906200054a565b925050819055508173ffffffffffffffffffffffffffffffffffffffff16600073ffffffffffffffffffffffffffffffffffffffff167fddf252ad1be2c89b69c2b068fc378daa952ba7f163c4a11628f55a4df523b3ef83604051620003e891906200051c565b60405180910390a362000404600083836200040d60201b60201c565b5050565b505050565b505050565b8280546200042090620007b7565b90600052602060002090601f01602090048101928262000444576000855562000490565b82601f106200045f57805160ff191683800117855562000490565b8280016001018555821562000490579182015b828111156200048f57825182559160200191906001019062000472565b5b5090506200049f9190620004a3565b5090565b5b80821115620004be576000816000905550600101620004a4565b5090565b6000620004d1601f8362000539565b9150620004de8262000858565b602082019050919050565b620004f481620007a0565b82525050565b600060208201905081810360008301526200051581620004c2565b9050919050565b6000602082019050620005336000830184620004e9565b92915050565b600082825260208201905092915050565b60006200055782620007a0565b91506200056483620007a0565b9250827fffffffffffffffffffffffffffffffffffffffffffffffffffffffffffffffff038211156200059c576200059b620007ed565b5b828201905092915050565b6000808291508390505b6001851115620005f957808604811115620005d157620005d0620007ed565b5b6001851615620005e15780820291505b8081029050620005f1856200084b565b9450620005b1565b94509492505050565b60006200060f82620007a0565b91506200061c83620007aa565b92506200064b7fffffffffffffffffffffffffffffffffffffffffffffffffffffffffffffffff848462000653565b905092915050565b60008262000665576001905062000738565b8162000675576000905062000738565b81600181146200068e57600281146200069957620006cf565b600191505062000738565b60ff841115620006ae57620006ad620007ed565b5b8360020a915084821115620006c857620006c7620007ed565b5b5062000738565b5060208310610133831016604e8410600b8410161715620007095782820a905083811115620007035762000702620007ed565b5b62000738565b620007188484846001620005a7565b92509050818404811115620007325762000731620007ed565b5b81810290505b9392505050565b60006200074c82620007a0565b91506200075983620007a0565b9250817fffffffffffffffffffffffffffffffffffffffffffffffffffffffffffffffff0483118215151615620007955762000794620007ed565b5b828202905092915050565b6000819050919050565b600060ff82169050919050565b60006002820490506001821680620007d057607f821691505b60208210811415620007e757620007e66200081c565b5b50919050565b7f4e487b7100000000000000000000000000000000000000000000000000000000600052601160045260246000fd5b7f4e487b7100000000000000000000000000000000000000000000000000000000600052602260045260246000fd5b60008160011c9050919050565b7f45524332303a206d696e7420746f20746865207a65726f206164647265737300600082015250565b612d0980620008916000396000f3fe6080604052600436106101855760003560e01c80638da5cb5b116100d1578063a9059cbb1161008a578063c6e1ad6411610064578063c6e1ad6414610567578063d1df306c146105a4578063dd62ed3e146105cd578063f2fde38b1461060a57610196565b8063a9059cbb146104e8578063c1affa1814610525578063c3b2d3371461053c57610196565b80638da5cb5b146103ce57806391b7f5ed146103f957806395ae19881461043657806395d89b4114610461578063a457c2d71461048c578063a4821719146104c957610196565b806323b872dd1161013e578063554d578d11610118578063554d578d146103245780635c975abb1461034f57806370a082311461037a578063715018a6146103b757610196565b806323b872dd1461027f578063313ce567146102bc57806339509351146102e757610196565b806306fdde03146101a2578063095ea7b3146101cd5780630fdb1c101461020a57806318160ddd14610214578063188b53721461023f57806320cd08fe1461026857610196565b3661019657610192610633565b5050005b61019e610633565b5050005b3480156101ae57600080fd5b506101b76107c7565b6040516101c49190612307565b60405180910390f35b3480156101d957600080fd5b506101f460048036038101906101ef9190611f81565b610859565b60405161020191906122ec565b60405180910390f35b61021261087c565b005b34801561022057600080fd5b50610229610a31565b6040516102369190612569565b60405180910390f35b34801561024b57600080fd5b5061026660048036038101906102619190611f81565b610a3b565b005b34801561027457600080fd5b5061027d610bce565b005b34801561028b57600080fd5b506102a660048036038101906102a19190611f32565b610c9b565b6040516102b391906122ec565b60405180910390f35b3480156102c857600080fd5b506102d1610cca565b6040516102de91906125dd565b60405180910390f35b3480156102f357600080fd5b5061030e60048036038101906103099190611f81565b610cd3565b60405161031b91906122ec565b60405180910390f35b34801561033057600080fd5b50610339610d7d565b6040516103469190612569565b60405180910390f35b34801561035b57600080fd5b50610364610d87565b60405161037191906122ec565b60405180910390f35b34801561038657600080fd5b506103a1600480360381019061039c9190611ecd565b610d9e565b6040516103ae9190612569565b60405180910390f35b3480156103c357600080fd5b506103cc610de6565b005b3480156103da57600080fd5b506103e3610e6e565b6040516103f091906122d1565b60405180910390f35b34801561040557600080fd5b50610420600480360381019061041b9190611fbd565b610e98565b60405161042d9190612307565b60405180910390f35b34801561044257600080fd5b5061044b610f5a565b6040516104589190612569565b60405180910390f35b34801561046d57600080fd5b50610476610f64565b6040516104839190612307565b60405180910390f35b34801561049857600080fd5b506104b360048036038101906104ae9190611f81565b610ff6565b6040516104c091906122ec565b60405180910390f35b6104d1610633565b6040516104df929190612584565b60405180910390f35b3480156104f457600080fd5b5061050f600480360381019061050a9190611f81565b6110e0565b60405161051c91906122ec565b60405180910390f35b34801561053157600080fd5b5061053a611103565b005b34801561054857600080fd5b506105516111d1565b60405161055e9190612569565b60405180910390f35b34801561057357600080fd5b5061058e60048036038101906105899190611ecd565b6111d7565b60405161059b9190612569565b60405180910390f35b3480156105b057600080fd5b506105cb60048036038101906105c69190611f81565b6111ef565b005b3480156105d957600080fd5b506105f460048036038101906105ef9190611ef6565b6112f8565b6040516106019190612569565b60405180910390f35b34801561061657600080fd5b50610631600480360381019061062c9190611ecd565b61137f565b005b600060606000341161067a576040517f08c379a000000000000000000000000000000000000000000000000000000000815260040161067190612449565b60405180910390fd5b6000600a543461068a919061266a565b905060003390503460066000600b60009054906101000a900473ffffffffffffffffffffffffffffffffffffffff1673ffffffffffffffffffffffffffffffffffffffff1673ffffffffffffffffffffffffffffffffffffffff16815260200190815260200160002060008282546107029190612614565b92505081905550610736600b60009054906101000a900473ffffffffffffffffffffffffffffffffffffffff168284611477565b8073ffffffffffffffffffffffffffffffffffffffff167f0a37b72bb67eee30e09084cf386f8a17817c57f620c3ab95fb25d6a20356ec77348460405161077e9291906125b4565b60405180910390a2816040518060400160405280601381526020017f53656e7420746f20796f75722077616c6c6574000000000000000000000000008152509350935050509091565b6060600380546107d690612780565b80601f016020809104026020016040519081016040528092919081815260200182805461080290612780565b801561084f5780601f106108245761010080835404028352916020019161084f565b820191906000526020600020905b81548152906001019060200180831161083257829003601f168201915b5050505050905090565b6000806108646116f8565b9050610871818585611700565b600191505092915050565b6108846116f8565b73ffffffffffffffffffffffffffffffffffffffff166108a2610e6e565b73ffffffffffffffffffffffffffffffffffffffff16146108f8576040517f08c379a00000000000000000000000000000000000000000000000000000000081526004016108ef90612489565b60405180910390fd5b600060066000600b60009054906101000a900473ffffffffffffffffffffffffffffffffffffffff1673ffffffffffffffffffffffffffffffffffffffff1673ffffffffffffffffffffffffffffffffffffffff168152602001908152602001600020549050600060066000600b60009054906101000a900473ffffffffffffffffffffffffffffffffffffffff1673ffffffffffffffffffffffffffffffffffffffff1673ffffffffffffffffffffffffffffffffffffffff16815260200190815260200160002081905550600b60009054906101000a900473ffffffffffffffffffffffffffffffffffffffff1673ffffffffffffffffffffffffffffffffffffffff166108fc829081150290604051600060405180830381858888f19350505050158015610a2d573d6000803e3d6000fd5b5050565b6000600254905090565b610a436116f8565b73ffffffffffffffffffffffffffffffffffffffff16610a61610e6e565b73ffffffffffffffffffffffffffffffffffffffff1614610ab7576040517f08c379a0000000000000000000000000000000000000000000000000000000008152600401610aae90612489565b60405180910390fd5b600073ffffffffffffffffffffffffffffffffffffffff168273ffffffffffffffffffffffffffffffffffffffff161415610b27576040517f08c379a0000000000000000000000000000000000000000000000000000000008152600401610b1e90612549565b60405180910390fd5b60008111610b6a576040517f08c379a0000000000000000000000000000000000000000000000000000000008152600401610b61906123e9565b60405180910390fd5b60085481610b76610a31565b610b809190612614565b10610bc0576040517f08c379a0000000000000000000000000000000000000000000000000000000008152600401610bb7906124c9565b60405180910390fd5b610bca82826118cb565b5050565b610bd6610d87565b610c15576040517f08c379a0000000000000000000000000000000000000000000000000000000008152600401610c0c90612369565b60405180910390fd5b610c1d6116f8565b73ffffffffffffffffffffffffffffffffffffffff16610c3b610e6e565b73ffffffffffffffffffffffffffffffffffffffff1614610c91576040517f08c379a0000000000000000000000000000000000000000000000000000000008152600401610c8890612489565b60405180910390fd5b610c99611a2b565b565b600080610ca66116f8565b9050610cb3858285611acd565b610cbe858585611477565b60019150509392505050565b60006012905090565b600080610cde6116f8565b9050610d72818585600160008673ffffffffffffffffffffffffffffffffffffffff1673ffffffffffffffffffffffffffffffffffffffff16815260200190815260200160002060008973ffffffffffffffffffffffffffffffffffffffff1673ffffffffffffffffffffffffffffffffffffffff16815260200190815260200160002054610d6d9190612614565b611700565b600191505092915050565b6000600854905090565b6000600560149054906101000a900460ff16905090565b60008060008373ffffffffffffffffffffffffffffffffffffffff1673ffffffffffffffffffffffffffffffffffffffff168152602001908152602001600020549050919050565b610dee6116f8565b73ffffffffffffffffffffffffffffffffffffffff16610e0c610e6e565b73ffffffffffffffffffffffffffffffffffffffff1614610e62576040517f08c379a0000000000000000000000000000000000000000000000000000000008152600401610e5990612489565b60405180910390fd5b610e6c6000611b59565b565b6000600560009054906101000a900473ffffffffffffffffffffffffffffffffffffffff16905090565b6060610ea26116f8565b73ffffffffffffffffffffffffffffffffffffffff16610ec0610e6e565b73ffffffffffffffffffffffffffffffffffffffff1614610f16576040517f08c379a0000000000000000000000000000000000000000000000000000000008152600401610f0d90612489565b60405180910390fd5b81600a819055506040518060400160405280601f81526020017f54686520746f6b656e206e657720707269636520697320757064617465642e008152509050919050565b6000600a54905090565b606060048054610f7390612780565b80601f0160208091040260200160405190810160405280929190818152602001828054610f9f90612780565b8015610fec5780601f10610fc157610100808354040283529160200191610fec565b820191906000526020600020905b815481529060010190602001808311610fcf57829003601f168201915b5050505050905090565b6000806110016116f8565b90506000600160008373ffffffffffffffffffffffffffffffffffffffff1673ffffffffffffffffffffffffffffffffffffffff16815260200190815260200160002060008673ffffffffffffffffffffffffffffffffffffffff1673ffffffffffffffffffffffffffffffffffffffff168152602001908152602001600020549050838110156110c7576040517f08c379a00000000000000000000000000000000000000000000000000000000081526004016110be90612529565b60405180910390fd5b6110d48286868403611700565b60019250505092915050565b6000806110eb6116f8565b90506110f8818585611477565b600191505092915050565b61110b610d87565b1561114b576040517f08c379a000000000000000000000000000000000000000000000000000000000815260040161114290612469565b60405180910390fd5b6111536116f8565b73ffffffffffffffffffffffffffffffffffffffff16611171610e6e565b73ffffffffffffffffffffffffffffffffffffffff16146111c7576040517f08c379a00000000000000000000000000000000000000000000000000000000081526004016111be90612489565b60405180910390fd5b6111cf611c1f565b565b60095481565b60066020528060005260406000206000915090505481565b6111f7610d87565b15611237576040517f08c379a000000000000000000000000000000000000000000000000000000000815260040161122e90612469565b60405180910390fd5b600073ffffffffffffffffffffffffffffffffffffffff168273ffffffffffffffffffffffffffffffffffffffff1614156112a7576040517f08c379a000000000000000000000000000000000000000000000000000000000815260040161129e906124a9565b60405180910390fd5b600081116112ea576040517f08c379a00000000000000000000000000000000000000000000000000000000081526004016112e190612329565b60405180910390fd5b6112f48282611cc2565b5050565b6000600160008473ffffffffffffffffffffffffffffffffffffffff1673ffffffffffffffffffffffffffffffffffffffff16815260200190815260200160002060008373ffffffffffffffffffffffffffffffffffffffff1673ffffffffffffffffffffffffffffffffffffffff16815260200190815260200160002054905092915050565b6113876116f8565b73ffffffffffffffffffffffffffffffffffffffff166113a5610e6e565b73ffffffffffffffffffffffffffffffffffffffff16146113fb576040517f08c379a00000000000000000000000000000000000000000000000000000000081526004016113f290612489565b60405180910390fd5b600073ffffffffffffffffffffffffffffffffffffffff168173ffffffffffffffffffffffffffffffffffffffff16141561146b576040517f08c379a0000000000000000000000000000000000000000000000000000000008152600401611462906123a9565b60405180910390fd5b61147481611b59565b50565b600073ffffffffffffffffffffffffffffffffffffffff168373ffffffffffffffffffffffffffffffffffffffff1614156114e7576040517f08c379a00000000000000000000000000000000000000000000000000000000081526004016114de906124e9565b60405180910390fd5b600073ffffffffffffffffffffffffffffffffffffffff168273ffffffffffffffffffffffffffffffffffffffff161415611557576040517f08c379a000000000000000000000000000000000000000000000000000000000815260040161154e90612349565b60405180910390fd5b611562838383611e99565b60008060008573ffffffffffffffffffffffffffffffffffffffff1673ffffffffffffffffffffffffffffffffffffffff168152602001908152602001600020549050818110156115e8576040517f08c379a00000000000000000000000000000000000000000000000000000000081526004016115df90612429565b60405180910390fd5b8181036000808673ffffffffffffffffffffffffffffffffffffffff1673ffffffffffffffffffffffffffffffffffffffff16815260200190815260200160002081905550816000808573ffffffffffffffffffffffffffffffffffffffff1673ffffffffffffffffffffffffffffffffffffffff168152602001908152602001600020600082825461167b9190612614565b925050819055508273ffffffffffffffffffffffffffffffffffffffff168473ffffffffffffffffffffffffffffffffffffffff167fddf252ad1be2c89b69c2b068fc378daa952ba7f163c4a11628f55a4df523b3ef846040516116df9190612569565b60405180910390a36116f2848484611e9e565b50505050565b600033905090565b600073ffffffffffffffffffffffffffffffffffffffff168373ffffffffffffffffffffffffffffffffffffffff161415611770576040517f08c379a000000000000000000000000000000000000000000000000000000000815260040161176790612509565b60405180910390fd5b600073ffffffffffffffffffffffffffffffffffffffff168273ffffffffffffffffffffffffffffffffffffffff1614156117e0576040517f08c379a00000000000000000000000000000000000000000000000000000000081526004016117d7906123c9565b60405180910390fd5b80600160008573ffffffffffffffffffffffffffffffffffffffff1673ffffffffffffffffffffffffffffffffffffffff16815260200190815260200160002060008473ffffffffffffffffffffffffffffffffffffffff1673ffffffffffffffffffffffffffffffffffffffff168152602001908152602001600020819055508173ffffffffffffffffffffffffffffffffffffffff168373ffffffffffffffffffffffffffffffffffffffff167f8c5be1e5ebec7d5bd14f71427d1e84f3dd0314c0f7b2291e5b200ac8c7c3b925836040516118be9190612569565b60405180910390a3505050565b600073ffffffffffffffffffffffffffffffffffffffff168273ffffffffffffffffffffffffffffffffffffffff16141561193b576040517f08c379a000000000000000000000000000000000000000000000000000000000815260040161193290612549565b60405180910390fd5b61194760008383611e99565b80600260008282546119599190612614565b92505081905550806000808473ffffffffffffffffffffffffffffffffffffffff1673ffffffffffffffffffffffffffffffffffffffff16815260200190815260200160002060008282546119ae9190612614565b925050819055508173ffffffffffffffffffffffffffffffffffffffff16600073ffffffffffffffffffffffffffffffffffffffff167fddf252ad1be2c89b69c2b068fc378daa952ba7f163c4a11628f55a4df523b3ef83604051611a139190612569565b60405180910390a3611a2760008383611e9e565b5050565b611a33610d87565b611a72576040517f08c379a0000000000000000000000000000000000000000000000000000000008152600401611a6990612369565b60405180910390fd5b6000600560146101000a81548160ff0219169083151502179055507f5db9ee0a495bf2e6ff9c91a7834c1ba4fdd244a5e8aa4e537bd38aeae4b073aa611ab66116f8565b604051611ac391906122d1565b60405180910390a1565b6000611ad984846112f8565b90507fffffffffffffffffffffffffffffffffffffffffffffffffffffffffffffffff8114611b535781811015611b45576040517f08c379a0000000000000000000000000000000000000000000000000000000008152600401611b3c90612409565b60405180910390fd5b611b528484848403611700565b5b50505050565b6000600560009054906101000a900473ffffffffffffffffffffffffffffffffffffffff16905081600560006101000a81548173ffffffffffffffffffffffffffffffffffffffff021916908373ffffffffffffffffffffffffffffffffffffffff1602179055508173ffffffffffffffffffffffffffffffffffffffff168173ffffffffffffffffffffffffffffffffffffffff167f8be0079c531659141344cd1fd0a4f28419497f9722a3daafe3b4186f6b6457e060405160405180910390a35050565b611c27610d87565b15611c67576040517f08c379a0000000000000000000000000000000000000000000000000000000008152600401611c5e90612469565b60405180910390fd5b6001600560146101000a81548160ff0219169083151502179055507f62e78cea01bee320cd4e420270b5ea74000d11b0c9f74754ebdbfc544b05a258611cab6116f8565b604051611cb891906122d1565b60405180910390a1565b600073ffffffffffffffffffffffffffffffffffffffff168273ffffffffffffffffffffffffffffffffffffffff161415611d32576040517f08c379a0000000000000000000000000000000000000000000000000000000008152600401611d29906124a9565b60405180910390fd5b611d3e82600083611e99565b60008060008473ffffffffffffffffffffffffffffffffffffffff1673ffffffffffffffffffffffffffffffffffffffff16815260200190815260200160002054905081811015611dc4576040517f08c379a0000000000000000000000000000000000000000000000000000000008152600401611dbb90612389565b60405180910390fd5b8181036000808573ffffffffffffffffffffffffffffffffffffffff1673ffffffffffffffffffffffffffffffffffffffff168152602001908152602001600020819055508160026000828254611e1b91906126c4565b92505081905550600073ffffffffffffffffffffffffffffffffffffffff168373ffffffffffffffffffffffffffffffffffffffff167fddf252ad1be2c89b69c2b068fc378daa952ba7f163c4a11628f55a4df523b3ef84604051611e809190612569565b60405180910390a3611e9483600084611e9e565b505050565b505050565b505050565b600081359050611eb281612ca5565b92915050565b600081359050611ec781612cbc565b92915050565b600060208284031215611edf57600080fd5b6000611eed84828501611ea3565b91505092915050565b60008060408385031215611f0957600080fd5b6000611f1785828601611ea3565b9250506020611f2885828601611ea3565b9150509250929050565b600080600060608486031215611f4757600080fd5b6000611f5586828701611ea3565b9350506020611f6686828701611ea3565b9250506040611f7786828701611eb8565b9150509250925092565b60008060408385031215611f9457600080fd5b6000611fa285828601611ea3565b9250506020611fb385828601611eb8565b9150509250929050565b600060208284031215611fcf57600080fd5b6000611fdd84828501611eb8565b91505092915050565b611fef816126f8565b82525050565b611ffe8161270a565b82525050565b600061200f826125f8565b6120198185612603565b935061202981856020860161274d565b61203281612810565b840191505092915050565b600061204a600f83612603565b915061205582612821565b602082019050919050565b600061206d602383612603565b91506120788261284a565b604082019050919050565b6000612090601483612603565b915061209b82612899565b602082019050919050565b60006120b3602283612603565b91506120be826128c2565b604082019050919050565b60006120d6602683612603565b91506120e182612911565b604082019050919050565b60006120f9602283612603565b915061210482612960565b604082019050919050565b600061211c600e83612603565b9150612127826129af565b602082019050919050565b600061213f601d83612603565b915061214a826129d8565b602082019050919050565b6000612162602683612603565b915061216d82612a01565b604082019050919050565b6000612185602783612603565b915061219082612a50565b604082019050919050565b60006121a8601083612603565b91506121b382612a9f565b602082019050919050565b60006121cb602083612603565b91506121d682612ac8565b602082019050919050565b60006121ee602183612603565b91506121f982612af1565b604082019050919050565b6000612211602883612603565b915061221c82612b40565b604082019050919050565b6000612234602583612603565b915061223f82612b8f565b604082019050919050565b6000612257602483612603565b915061226282612bde565b604082019050919050565b600061227a602583612603565b915061228582612c2d565b604082019050919050565b600061229d601f83612603565b91506122a882612c7c565b602082019050919050565b6122bc81612736565b82525050565b6122cb81612740565b82525050565b60006020820190506122e66000830184611fe6565b92915050565b60006020820190506123016000830184611ff5565b92915050565b600060208201905081810360008301526123218184612004565b905092915050565b600060208201905081810360008301526123428161203d565b9050919050565b6000602082019050818103600083015261236281612060565b9050919050565b6000602082019050818103600083015261238281612083565b9050919050565b600060208201905081810360008301526123a2816120a6565b9050919050565b600060208201905081810360008301526123c2816120c9565b9050919050565b600060208201905081810360008301526123e2816120ec565b9050919050565b600060208201905081810360008301526124028161210f565b9050919050565b6000602082019050818103600083015261242281612132565b9050919050565b6000602082019050818103600083015261244281612155565b9050919050565b6000602082019050818103600083015261246281612178565b9050919050565b600060208201905081810360008301526124828161219b565b9050919050565b600060208201905081810360008301526124a2816121be565b9050919050565b600060208201905081810360008301526124c2816121e1565b9050919050565b600060208201905081810360008301526124e281612204565b9050919050565b6000602082019050818103600083015261250281612227565b9050919050565b600060208201905081810360008301526125228161224a565b9050919050565b600060208201905081810360008301526125428161226d565b9050919050565b6000602082019050818103600083015261256281612290565b9050919050565b600060208201905061257e60008301846122b3565b92915050565b600060408201905061259960008301856122b3565b81810360208301526125ab8184612004565b90509392505050565b60006040820190506125c960008301856122b3565b6125d660208301846122b3565b9392505050565b60006020820190506125f260008301846122c2565b92915050565b600081519050919050565b600082825260208201905092915050565b600061261f82612736565b915061262a83612736565b9250827fffffffffffffffffffffffffffffffffffffffffffffffffffffffffffffffff0382111561265f5761265e6127b2565b5b828201905092915050565b600061267582612736565b915061268083612736565b9250817fffffffffffffffffffffffffffffffffffffffffffffffffffffffffffffffff04831182151516156126b9576126b86127b2565b5b828202905092915050565b60006126cf82612736565b91506126da83612736565b9250828210156126ed576126ec6127b2565b5b828203905092915050565b600061270382612716565b9050919050565b60008115159050919050565b600073ffffffffffffffffffffffffffffffffffffffff82169050919050565b6000819050919050565b600060ff82169050919050565b60005b8381101561276b578082015181840152602081019050612750565b8381111561277a576000848401525b50505050565b6000600282049050600182168061279857607f821691505b602082108114156127ac576127ab6127e1565b5b50919050565b7f4e487b7100000000000000000000000000000000000000000000000000000000600052601160045260246000fd5b7f4e487b7100000000000000000000000000000000000000000000000000000000600052602260045260246000fd5b6000601f19601f8301169050919050565b7f496e76616c696420616d6f756e742e0000000000000000000000000000000000600082015250565b7f45524332303a207472616e7366657220746f20746865207a65726f206164647260008201527f6573730000000000000000000000000000000000000000000000000000000000602082015250565b7f5061757361626c653a206e6f7420706175736564000000000000000000000000600082015250565b7f45524332303a206275726e20616d6f756e7420657863656564732062616c616e60008201527f6365000000000000000000000000000000000000000000000000000000000000602082015250565b7f4f776e61626c653a206e6577206f776e657220697320746865207a65726f206160008201527f6464726573730000000000000000000000000000000000000000000000000000602082015250565b7f45524332303a20617070726f766520746f20746865207a65726f20616464726560008201527f7373000000000000000000000000000000000000000000000000000000000000602082015250565b7f496e76616c696420616d6f756e74000000000000000000000000000000000000600082015250565b7f45524332303a20696e73756666696369656e7420616c6c6f77616e6365000000600082015250565b7f45524332303a207472616e7366657220616d6f756e742065786365656473206260008201527f616c616e63650000000000000000000000000000000000000000000000000000602082015250565b7f5061792074686520616d6f756e74206f662045746820796f752077616e74207460008201527f6f2073656e642e00000000000000000000000000000000000000000000000000602082015250565b7f5061757361626c653a2070617573656400000000000000000000000000000000600082015250565b7f4f776e61626c653a2063616c6c6572206973206e6f7420746865206f776e6572600082015250565b7f45524332303a206275726e2066726f6d20746865207a65726f2061646472657360008201527f7300000000000000000000000000000000000000000000000000000000000000602082015250565b7f4f7665724c696d697420746f6b656e3a20546f6b656e2067656e65726174696f60008201527f6e206661696c6564000000000000000000000000000000000000000000000000602082015250565b7f45524332303a207472616e736665722066726f6d20746865207a65726f20616460008201527f6472657373000000000000000000000000000000000000000000000000000000602082015250565b7f45524332303a20617070726f76652066726f6d20746865207a65726f2061646460008201527f7265737300000000000000000000000000000000000000000000000000000000602082015250565b7f45524332303a2064656372656173656420616c6c6f77616e63652062656c6f7760008201527f207a65726f000000000000000000000000000000000000000000000000000000602082015250565b7f45524332303a206d696e7420746f20746865207a65726f206164647265737300600082015250565b612cae816126f8565b8114612cb957600080fd5b50565b612cc581612736565b8114612cd057600080fd5b5056fea2646970667358221220f8d166d8b183b2816b9c0f86dbd2931f88a3b4739613270291442ed6b90ad23a64736f6c63430008040033",
    "linkReferences": {},
    "deployedLinkReferences": {}
}