{
    "_format": "hh-sol-artifact-1",
    "contractName": "PakoToken",
    "sourceName": "contracts/pakotoken.sol",
    "abi": [
        {
            "inputs": [],
            "stateMutability": "nonpayable",
            "type": "constructor"
        },
        {
            "anonymous": false,
            "inputs": [
                {
                    "indexed": true,
                    "internalType": "address",
                    "name": "owner",
                    "type": "address"
                },
                {
                    "indexed": true,
                    "internalType": "address",
                    "name": "spender",
                    "type": "address"
                },
                {
                    "indexed": false,
                    "internalType": "uint256",
                    "name": "value",
                    "type": "uint256"
                }
            ],
            "name": "Approval",
            "type": "event"
        },
        {
            "anonymous": false,
            "inputs": [
                {
                    "indexed": true,
                    "internalType": "address",
                    "name": "previousOwner",
                    "type": "address"
                },
                {
                    "indexed": true,
                    "internalType": "address",
                    "name": "newOwner",
                    "type": "address"
                }
            ],
            "name": "OwnershipTransferred",
            "type": "event"
        },
        {
            "anonymous": false,
            "inputs": [
                {
                    "indexed": false,
                    "internalType": "address",
                    "name": "account",
                    "type": "address"
                }
            ],
            "name": "Paused",
            "type": "event"
        },
        {
            "anonymous": false,
            "inputs": [
                {
                    "indexed": true,
                    "internalType": "address",
                    "name": "from",
                    "type": "address"
                },
                {
                    "indexed": true,
                    "internalType": "address",
                    "name": "to",
                    "type": "address"
                },
                {
                    "indexed": false,
                    "internalType": "uint256",
                    "name": "value",
                    "type": "uint256"
                }
            ],
            "name": "Transfer",
            "type": "event"
        },
        {
            "anonymous": false,
            "inputs": [
                {
                    "indexed": false,
                    "internalType": "address",
                    "name": "account",
                    "type": "address"
                }
            ],
            "name": "Unpaused",
            "type": "event"
        },
        {
            "inputs": [],
            "name": "_initialSupply",
            "outputs": [
                {
                    "internalType": "uint256",
                    "name": "",
                    "type": "uint256"
                }
            ],
            "stateMutability": "view",
            "type": "function"
        },
        {
            "inputs": [
                {
                    "internalType": "address",
                    "name": "owner",
                    "type": "address"
                },
                {
                    "internalType": "address",
                    "name": "spender",
                    "type": "address"
                }
            ],
            "name": "allowance",
            "outputs": [
                {
                    "internalType": "uint256",
                    "name": "",
                    "type": "uint256"
                }
            ],
            "stateMutability": "view",
            "type": "function"
        },
        {
            "inputs": [
                {
                    "internalType": "address",
                    "name": "spender",
                    "type": "address"
                },
                {
                    "internalType": "uint256",
                    "name": "amount",
                    "type": "uint256"
                }
            ],
            "name": "approve",
            "outputs": [
                {
                    "internalType": "bool",
                    "name": "",
                    "type": "bool"
                }
            ],
            "stateMutability": "nonpayable",
            "type": "function"
        },
        {
            "inputs": [
                {
                    "internalType": "address",
                    "name": "account",
                    "type": "address"
                }
            ],
            "name": "balanceOf",
            "outputs": [
                {
                    "internalType": "uint256",
                    "name": "",
                    "type": "uint256"
                }
            ],
            "stateMutability": "view",
            "type": "function"
        },
        {
            "inputs": [
                {
                    "internalType": "address",
                    "name": "account",
                    "type": "address"
                },
                {
                    "internalType": "uint256",
                    "name": "amount",
                    "type": "uint256"
                }
            ],
            "name": "burnToken",
            "outputs": [],
            "stateMutability": "nonpayable",
            "type": "function"
        },
        {
            "inputs": [],
            "name": "buyToken",
            "outputs": [
                {
                    "internalType": "uint256",
                    "name": "",
                    "type": "uint256"
                },
                {
                    "internalType": "string",
                    "name": "",
                    "type": "string"
                }
            ],
            "stateMutability": "payable",
            "type": "function"
        },
        {
            "inputs": [],
            "name": "decimals",
            "outputs": [
                {
                    "internalType": "uint8",
                    "name": "",
                    "type": "uint8"
                }
            ],
            "stateMutability": "view",
            "type": "function"
        },
        {
            "inputs": [
                {
                    "internalType": "address",
                    "name": "spender",
                    "type": "address"
                },
                {
                    "internalType": "uint256",
                    "name": "subtractedValue",
                    "type": "uint256"
                }
            ],
            "name": "decreaseAllowance",
            "outputs": [
                {
                    "internalType": "bool",
                    "name": "",
                    "type": "bool"
                }
            ],
            "stateMutability": "nonpayable",
            "type": "function"
        },
        {
            "inputs": [
                {
                    "internalType": "address",
                    "name": "account",
                    "type": "address"
                },
                {
                    "internalType": "uint256",
                    "name": "amount",
                    "type": "uint256"
                }
            ],
            "name": "generateToken",
            "outputs": [],
            "stateMutability": "nonpayable",
            "type": "function"
        },
        {
            "inputs": [],
            "name": "getCap",
            "outputs": [
                {
                    "internalType": "uint256",
                    "name": "",
                    "type": "uint256"
                }
            ],
            "stateMutability": "view",
            "type": "function"
        },
        {
            "inputs": [],
            "name": "getOwner",
            "outputs": [
                {
                    "internalType": "address",
                    "name": "",
                    "type": "address"
                }
            ],
            "stateMutability": "view",
            "type": "function"
        },
        {
            "inputs": [
                {
                    "internalType": "address",
                    "name": "spender",
                    "type": "address"
                },
                {
                    "internalType": "uint256",
                    "name": "addedValue",
                    "type": "uint256"
                }
            ],
            "name": "increaseAllowance",
            "outputs": [
                {
                    "internalType": "bool",
                    "name": "",
                    "type": "bool"
                }
            ],
            "stateMutability": "nonpayable",
            "type": "function"
        },
        {
            "inputs": [],
            "name": "name",
            "outputs": [
                {
                    "internalType": "string",
                    "name": "",
                    "type": "string"
                }
            ],
            "stateMutability": "view",
            "type": "function"
        },
        {
            "inputs": [],
            "name": "owner",
            "outputs": [
                {
                    "internalType": "address",
                    "name": "",
                    "type": "address"
                }
            ],
            "stateMutability": "view",
            "type": "function"
        },
        {
            "inputs": [],
            "name": "paused",
            "outputs": [
                {
                    "internalType": "bool",
                    "name": "",
                    "type": "bool"
                }
            ],
            "stateMutability": "view",
            "type": "function"
        },
        {
            "inputs": [
                {
                    "internalType": "address",
                    "name": "",
                    "type": "address"
                }
            ],
            "name": "pendingWithDrawals",
            "outputs": [
                {
                    "internalType": "uint256",
                    "name": "",
                    "type": "uint256"
                }
            ],
            "stateMutability": "view",
            "type": "function"
        },
        {
            "inputs": [],
            "name": "pricePerEth",
            "outputs": [
                {
                    "internalType": "uint256",
                    "name": "",
                    "type": "uint256"
                }
            ],
            "stateMutability": "view",
            "type": "function"
        },
        {
            "inputs": [],
            "name": "renounceOwnership",
            "outputs": [],
            "stateMutability": "nonpayable",
            "type": "function"
        },
        {
            "inputs": [
                {
                    "internalType": "uint256",
                    "name": "_newPrice",
                    "type": "uint256"
                }
            ],
            "name": "setPrice",
            "outputs": [
                {
                    "internalType": "string",
                    "name": "",
                    "type": "string"
                }
            ],
            "stateMutability": "nonpayable",
            "type": "function"
        },
        {
            "inputs": [],
            "name": "startTransaction",
            "outputs": [],
            "stateMutability": "nonpayable",
            "type": "function"
        },
        {
            "inputs": [],
            "name": "stopTransaction",
            "outputs": [],
            "stateMutability": "nonpayable",
            "type": "function"
        },
        {
            "inputs": [],
            "name": "symbol",
            "outputs": [
                {
                    "internalType": "string",
                    "name": "",
                    "type": "string"
                }
            ],
            "stateMutability": "view",
            "type": "function"
        },
        {
            "inputs": [],
            "name": "totalSupply",
            "outputs": [
                {
                    "internalType": "uint256",
                    "name": "",
                    "type": "uint256"
                }
            ],
            "stateMutability": "view",
            "type": "function"
        },
        {
            "inputs": [
                {
                    "internalType": "address",
                    "name": "to",
                    "type": "address"
                },
                {
                    "internalType": "uint256",
                    "name": "amount",
                    "type": "uint256"
                }
            ],
            "name": "transfer",
            "outputs": [
                {
                    "internalType": "bool",
                    "name": "",
                    "type": "bool"
                }
            ],
            "stateMutability": "nonpayable",
            "type": "function"
        },
        {
            "inputs": [
                {
                    "internalType": "address",
                    "name": "from",
                    "type": "address"
                },
                {
                    "internalType": "address",
                    "name": "to",
                    "type": "address"
                },
                {
                    "internalType": "uint256",
                    "name": "amount",
                    "type": "uint256"
                }
            ],
            "name": "transferFrom",
            "outputs": [
                {
                    "internalType": "bool",
                    "name": "",
                    "type": "bool"
                }
            ],
            "stateMutability": "nonpayable",
            "type": "function"
        },
        {
            "inputs": [
                {
                    "internalType": "address",
                    "name": "newOwner",
                    "type": "address"
                }
            ],
            "name": "transferOwnership",
            "outputs": [],
            "stateMutability": "nonpayable",
            "type": "function"
        },
        {
            "inputs": [],
            "name": "withDraw",
            "outputs": [],
            "stateMutability": "payable",
            "type": "function"
        },
        {
            "stateMutability": "payable",
            "type": "receive"
        }
    ],
    "bytecode": "0x60806040523480156200001157600080fd5b506040518060400160405280600981526020017f50616b6f546f6b656e00000000000000000000000000000000000000000000008152506040518060400160405280600481526020017f50616b6f00000000000000000000000000000000000000000000000000000000815250816003908051906020019062000096929190620003fa565b508060049080519060200190620000af929190620003fa565b505050620000d2620000c6620001a060201b60201c565b620001a860201b60201c565b6000600560146101000a81548160ff021916908315150217905550620000fd6200026e60201b60201c565b600a6200010b9190620005ea565b6127106200011a919062000727565b600a81905550662386f26fc10000600a5462000137919062000727565b6007819055506200015133600a546200027760201b60201c565b606460088190555033600960006101000a81548173ffffffffffffffffffffffffffffffffffffffff021916908373ffffffffffffffffffffffffffffffffffffffff16021790555062000869565b600033905090565b6000600560009054906101000a900473ffffffffffffffffffffffffffffffffffffffff16905081600560006101000a81548173ffffffffffffffffffffffffffffffffffffffff021916908373ffffffffffffffffffffffffffffffffffffffff1602179055508173ffffffffffffffffffffffffffffffffffffffff168173ffffffffffffffffffffffffffffffffffffffff167f8be0079c531659141344cd1fd0a4f28419497f9722a3daafe3b4186f6b6457e060405160405180910390a35050565b60006012905090565b600073ffffffffffffffffffffffffffffffffffffffff168273ffffffffffffffffffffffffffffffffffffffff161415620002ea576040517f08c379a0000000000000000000000000000000000000000000000000000000008152600401620002e190620004e2565b60405180910390fd5b620002fe60008383620003f060201b60201c565b806002600082825462000312919062000532565b92505081905550806000808473ffffffffffffffffffffffffffffffffffffffff1673ffffffffffffffffffffffffffffffffffffffff168152602001908152602001600020600082825462000369919062000532565b925050819055508173ffffffffffffffffffffffffffffffffffffffff16600073ffffffffffffffffffffffffffffffffffffffff167fddf252ad1be2c89b69c2b068fc378daa952ba7f163c4a11628f55a4df523b3ef83604051620003d0919062000504565b60405180910390a3620003ec60008383620003f560201b60201c565b5050565b505050565b505050565b82805462000408906200079f565b90600052602060002090601f0160209004810192826200042c576000855562000478565b82601f106200044757805160ff191683800117855562000478565b8280016001018555821562000478579182015b82811115620004775782518255916020019190600101906200045a565b5b5090506200048791906200048b565b5090565b5b80821115620004a65760008160009055506001016200048c565b5090565b6000620004b9601f8362000521565b9150620004c68262000840565b602082019050919050565b620004dc8162000788565b82525050565b60006020820190508181036000830152620004fd81620004aa565b9050919050565b60006020820190506200051b6000830184620004d1565b92915050565b600082825260208201905092915050565b60006200053f8262000788565b91506200054c8362000788565b9250827fffffffffffffffffffffffffffffffffffffffffffffffffffffffffffffffff03821115620005845762000583620007d5565b5b828201905092915050565b6000808291508390505b6001851115620005e157808604811115620005b957620005b8620007d5565b5b6001851615620005c95780820291505b8081029050620005d98562000833565b945062000599565b94509492505050565b6000620005f78262000788565b9150620006048362000792565b9250620006337fffffffffffffffffffffffffffffffffffffffffffffffffffffffffffffffff84846200063b565b905092915050565b6000826200064d576001905062000720565b816200065d576000905062000720565b81600181146200067657600281146200068157620006b7565b600191505062000720565b60ff841115620006965762000695620007d5565b5b8360020a915084821115620006b057620006af620007d5565b5b5062000720565b5060208310610133831016604e8410600b8410161715620006f15782820a905083811115620006eb57620006ea620007d5565b5b62000720565b6200070084848460016200058f565b925090508184048111156200071a5762000719620007d5565b5b81810290505b9392505050565b6000620007348262000788565b9150620007418362000788565b9250817fffffffffffffffffffffffffffffffffffffffffffffffffffffffffffffffff04831182151516156200077d576200077c620007d5565b5b828202905092915050565b6000819050919050565b600060ff82169050919050565b60006002820490506001821680620007b857607f821691505b60208210811415620007cf57620007ce62000804565b5b50919050565b7f4e487b7100000000000000000000000000000000000000000000000000000000600052601160045260246000fd5b7f4e487b7100000000000000000000000000000000000000000000000000000000600052602260045260246000fd5b60008160011c9050919050565b7f45524332303a206d696e7420746f20746865207a65726f206164647265737300600082015250565b612e0c80620008796000396000f3fe6080604052600436106101a05760003560e01c8063893d20e8116100ec578063a9059cbb1161008a578063c6e1ad6411610064578063c6e1ad64146105a6578063d1df306c146105e3578063dd62ed3e1461060c578063f2fde38b14610649576101b1565b8063a9059cbb14610527578063c1affa1814610564578063c3b2d3371461057b576101b1565b806395ae1988116100c657806395ae19881461047557806395d89b41146104a0578063a457c2d7146104cb578063a482171914610508576101b1565b8063893d20e8146103e25780638da5cb5b1461040d57806391b7f5ed14610438576101b1565b806323b872dd11610159578063554d578d11610133578063554d578d146103385780635c975abb1461036357806370a082311461038e578063715018a6146103cb576101b1565b806323b872dd14610293578063313ce567146102d057806339509351146102fb576101b1565b806306fdde03146101b6578063095ea7b3146101e15780630fdb1c101461021e57806318160ddd14610228578063188b53721461025357806320cd08fe1461027c576101b1565b366101b1576101ad610672565b5050005b600080fd5b3480156101c257600080fd5b506101cb6108c9565b6040516101d89190612433565b60405180910390f35b3480156101ed57600080fd5b50610208600480360381019061020391906120ad565b61095b565b6040516102159190612418565b60405180910390f35b61022661097e565b005b34801561023457600080fd5b5061023d610b33565b60405161024a9190612695565b60405180910390f35b34801561025f57600080fd5b5061027a600480360381019061027591906120ad565b610b3d565b005b34801561028857600080fd5b50610291610cd0565b005b34801561029f57600080fd5b506102ba60048036038101906102b5919061205e565b610d9d565b6040516102c79190612418565b60405180910390f35b3480156102dc57600080fd5b506102e5610dcc565b6040516102f291906126e0565b60405180910390f35b34801561030757600080fd5b50610322600480360381019061031d91906120ad565b610dd5565b60405161032f9190612418565b60405180910390f35b34801561034457600080fd5b5061034d610e7f565b60405161035a9190612695565b60405180910390f35b34801561036f57600080fd5b50610378610e89565b6040516103859190612418565b60405180910390f35b34801561039a57600080fd5b506103b560048036038101906103b09190611ff9565b610ea0565b6040516103c29190612695565b60405180910390f35b3480156103d757600080fd5b506103e0610ee8565b005b3480156103ee57600080fd5b506103f7610f70565b60405161040491906123fd565b60405180910390f35b34801561041957600080fd5b50610422610f9a565b60405161042f91906123fd565b60405180910390f35b34801561044457600080fd5b5061045f600480360381019061045a91906120e9565b610fc4565b60405161046c9190612433565b60405180910390f35b34801561048157600080fd5b5061048a611086565b6040516104979190612695565b60405180910390f35b3480156104ac57600080fd5b506104b5611090565b6040516104c29190612433565b60405180910390f35b3480156104d757600080fd5b506104f260048036038101906104ed91906120ad565b611122565b6040516104ff9190612418565b60405180910390f35b610510610672565b60405161051e9291906126b0565b60405180910390f35b34801561053357600080fd5b5061054e600480360381019061054991906120ad565b61120c565b60405161055b9190612418565b60405180910390f35b34801561057057600080fd5b5061057961122f565b005b34801561058757600080fd5b506105906112fd565b60405161059d9190612695565b60405180910390f35b3480156105b257600080fd5b506105cd60048036038101906105c89190611ff9565b611303565b6040516105da9190612695565b60405180910390f35b3480156105ef57600080fd5b5061060a600480360381019061060591906120ad565b61131b565b005b34801561061857600080fd5b50610633600480360381019061062e9190612022565b611424565b6040516106409190612695565b60405180910390f35b34801561065557600080fd5b50610670600480360381019061066b9190611ff9565b6114ab565b005b60006060600034116106b9576040517f08c379a00000000000000000000000000000000000000000000000000000000081526004016106b090612575565b60405180910390fd5b6000600854346106c9919061276d565b90506106f8600960009054906101000a900473ffffffffffffffffffffffffffffffffffffffff1633836115a3565b6000610725600960009054906101000a900473ffffffffffffffffffffffffffffffffffffffff16610ea0565b9050818103600080600960009054906101000a900473ffffffffffffffffffffffffffffffffffffffff1673ffffffffffffffffffffffffffffffffffffffff1673ffffffffffffffffffffffffffffffffffffffff16815260200190815260200160002081905550816000803373ffffffffffffffffffffffffffffffffffffffff1673ffffffffffffffffffffffffffffffffffffffff16815260200190815260200160002060008282546107dc9190612717565b925050819055503460066000600960009054906101000a900473ffffffffffffffffffffffffffffffffffffffff1673ffffffffffffffffffffffffffffffffffffffff1673ffffffffffffffffffffffffffffffffffffffff16815260200190815260200160002060008282546108549190612717565b92505081905550610888600960009054906101000a900473ffffffffffffffffffffffffffffffffffffffff1633846115a8565b816040518060400160405280601381526020017f53656e7420746f20796f75722077616c6c6574000000000000000000000000008152509350935050509091565b6060600380546108d890612883565b80601f016020809104026020016040519081016040528092919081815260200182805461090490612883565b80156109515780601f1061092657610100808354040283529160200191610951565b820191906000526020600020905b81548152906001019060200180831161093457829003601f168201915b5050505050905090565b6000806109666115ad565b90506109738185856115b5565b600191505092915050565b6109866115ad565b73ffffffffffffffffffffffffffffffffffffffff166109a4610f9a565b73ffffffffffffffffffffffffffffffffffffffff16146109fa576040517f08c379a00000000000000000000000000000000000000000000000000000000081526004016109f1906125b5565b60405180910390fd5b600060066000600960009054906101000a900473ffffffffffffffffffffffffffffffffffffffff1673ffffffffffffffffffffffffffffffffffffffff1673ffffffffffffffffffffffffffffffffffffffff168152602001908152602001600020549050600060066000600960009054906101000a900473ffffffffffffffffffffffffffffffffffffffff1673ffffffffffffffffffffffffffffffffffffffff1673ffffffffffffffffffffffffffffffffffffffff16815260200190815260200160002081905550600960009054906101000a900473ffffffffffffffffffffffffffffffffffffffff1673ffffffffffffffffffffffffffffffffffffffff166108fc829081150290604051600060405180830381858888f19350505050158015610b2f573d6000803e3d6000fd5b5050565b6000600254905090565b610b456115ad565b73ffffffffffffffffffffffffffffffffffffffff16610b63610f9a565b73ffffffffffffffffffffffffffffffffffffffff1614610bb9576040517f08c379a0000000000000000000000000000000000000000000000000000000008152600401610bb0906125b5565b60405180910390fd5b600073ffffffffffffffffffffffffffffffffffffffff168273ffffffffffffffffffffffffffffffffffffffff161415610c29576040517f08c379a0000000000000000000000000000000000000000000000000000000008152600401610c2090612675565b60405180910390fd5b60008111610c6c576040517f08c379a0000000000000000000000000000000000000000000000000000000008152600401610c6390612515565b60405180910390fd5b60075481610c78610b33565b610c829190612717565b10610cc2576040517f08c379a0000000000000000000000000000000000000000000000000000000008152600401610cb9906125f5565b60405180910390fd5b610ccc8282611780565b5050565b610cd8610e89565b610d17576040517f08c379a0000000000000000000000000000000000000000000000000000000008152600401610d0e90612495565b60405180910390fd5b610d1f6115ad565b73ffffffffffffffffffffffffffffffffffffffff16610d3d610f9a565b73ffffffffffffffffffffffffffffffffffffffff1614610d93576040517f08c379a0000000000000000000000000000000000000000000000000000000008152600401610d8a906125b5565b60405180910390fd5b610d9b6118e0565b565b600080610da86115ad565b9050610db5858285611982565b610dc0858585611a0e565b60019150509392505050565b60006012905090565b600080610de06115ad565b9050610e74818585600160008673ffffffffffffffffffffffffffffffffffffffff1673ffffffffffffffffffffffffffffffffffffffff16815260200190815260200160002060008973ffffffffffffffffffffffffffffffffffffffff1673ffffffffffffffffffffffffffffffffffffffff16815260200190815260200160002054610e6f9190612717565b6115b5565b600191505092915050565b6000600754905090565b6000600560149054906101000a900460ff16905090565b60008060008373ffffffffffffffffffffffffffffffffffffffff1673ffffffffffffffffffffffffffffffffffffffff168152602001908152602001600020549050919050565b610ef06115ad565b73ffffffffffffffffffffffffffffffffffffffff16610f0e610f9a565b73ffffffffffffffffffffffffffffffffffffffff1614610f64576040517f08c379a0000000000000000000000000000000000000000000000000000000008152600401610f5b906125b5565b60405180910390fd5b610f6e6000611c8f565b565b6000600960009054906101000a900473ffffffffffffffffffffffffffffffffffffffff16905090565b6000600560009054906101000a900473ffffffffffffffffffffffffffffffffffffffff16905090565b6060610fce6115ad565b73ffffffffffffffffffffffffffffffffffffffff16610fec610f9a565b73ffffffffffffffffffffffffffffffffffffffff1614611042576040517f08c379a0000000000000000000000000000000000000000000000000000000008152600401611039906125b5565b60405180910390fd5b816008819055506040518060400160405280601f81526020017f54686520746f6b656e206e657720707269636520697320757064617465642e008152509050919050565b6000600854905090565b60606004805461109f90612883565b80601f01602080910402602001604051908101604052809291908181526020018280546110cb90612883565b80156111185780601f106110ed57610100808354040283529160200191611118565b820191906000526020600020905b8154815290600101906020018083116110fb57829003601f168201915b5050505050905090565b60008061112d6115ad565b90506000600160008373ffffffffffffffffffffffffffffffffffffffff1673ffffffffffffffffffffffffffffffffffffffff16815260200190815260200160002060008673ffffffffffffffffffffffffffffffffffffffff1673ffffffffffffffffffffffffffffffffffffffff168152602001908152602001600020549050838110156111f3576040517f08c379a00000000000000000000000000000000000000000000000000000000081526004016111ea90612655565b60405180910390fd5b61120082868684036115b5565b60019250505092915050565b6000806112176115ad565b9050611224818585611a0e565b600191505092915050565b611237610e89565b15611277576040517f08c379a000000000000000000000000000000000000000000000000000000000815260040161126e90612595565b60405180910390fd5b61127f6115ad565b73ffffffffffffffffffffffffffffffffffffffff1661129d610f9a565b73ffffffffffffffffffffffffffffffffffffffff16146112f3576040517f08c379a00000000000000000000000000000000000000000000000000000000081526004016112ea906125b5565b60405180910390fd5b6112fb611d55565b565b600a5481565b60066020528060005260406000206000915090505481565b611323610e89565b15611363576040517f08c379a000000000000000000000000000000000000000000000000000000000815260040161135a90612595565b60405180910390fd5b600073ffffffffffffffffffffffffffffffffffffffff168273ffffffffffffffffffffffffffffffffffffffff1614156113d3576040517f08c379a00000000000000000000000000000000000000000000000000000000081526004016113ca906125d5565b60405180910390fd5b60008111611416576040517f08c379a000000000000000000000000000000000000000000000000000000000815260040161140d90612455565b60405180910390fd5b6114208282611df8565b5050565b6000600160008473ffffffffffffffffffffffffffffffffffffffff1673ffffffffffffffffffffffffffffffffffffffff16815260200190815260200160002060008373ffffffffffffffffffffffffffffffffffffffff1673ffffffffffffffffffffffffffffffffffffffff16815260200190815260200160002054905092915050565b6114b36115ad565b73ffffffffffffffffffffffffffffffffffffffff166114d1610f9a565b73ffffffffffffffffffffffffffffffffffffffff1614611527576040517f08c379a000000000000000000000000000000000000000000000000000000000815260040161151e906125b5565b60405180910390fd5b600073ffffffffffffffffffffffffffffffffffffffff168173ffffffffffffffffffffffffffffffffffffffff161415611597576040517f08c379a000000000000000000000000000000000000000000000000000000000815260040161158e906124d5565b60405180910390fd5b6115a081611c8f565b50565b505050565b505050565b600033905090565b600073ffffffffffffffffffffffffffffffffffffffff168373ffffffffffffffffffffffffffffffffffffffff161415611625576040517f08c379a000000000000000000000000000000000000000000000000000000000815260040161161c90612635565b60405180910390fd5b600073ffffffffffffffffffffffffffffffffffffffff168273ffffffffffffffffffffffffffffffffffffffff161415611695576040517f08c379a000000000000000000000000000000000000000000000000000000000815260040161168c906124f5565b60405180910390fd5b80600160008573ffffffffffffffffffffffffffffffffffffffff1673ffffffffffffffffffffffffffffffffffffffff16815260200190815260200160002060008473ffffffffffffffffffffffffffffffffffffffff1673ffffffffffffffffffffffffffffffffffffffff168152602001908152602001600020819055508173ffffffffffffffffffffffffffffffffffffffff168373ffffffffffffffffffffffffffffffffffffffff167f8c5be1e5ebec7d5bd14f71427d1e84f3dd0314c0f7b2291e5b200ac8c7c3b925836040516117739190612695565b60405180910390a3505050565b600073ffffffffffffffffffffffffffffffffffffffff168273ffffffffffffffffffffffffffffffffffffffff1614156117f0576040517f08c379a00000000000000000000000000000000000000000000000000000000081526004016117e790612675565b60405180910390fd5b6117fc600083836115a3565b806002600082825461180e9190612717565b92505081905550806000808473ffffffffffffffffffffffffffffffffffffffff1673ffffffffffffffffffffffffffffffffffffffff16815260200190815260200160002060008282546118639190612717565b925050819055508173ffffffffffffffffffffffffffffffffffffffff16600073ffffffffffffffffffffffffffffffffffffffff167fddf252ad1be2c89b69c2b068fc378daa952ba7f163c4a11628f55a4df523b3ef836040516118c89190612695565b60405180910390a36118dc600083836115a8565b5050565b6118e8610e89565b611927576040517f08c379a000000000000000000000000000000000000000000000000000000000815260040161191e90612495565b60405180910390fd5b6000600560146101000a81548160ff0219169083151502179055507f5db9ee0a495bf2e6ff9c91a7834c1ba4fdd244a5e8aa4e537bd38aeae4b073aa61196b6115ad565b60405161197891906123fd565b60405180910390a1565b600061198e8484611424565b90507fffffffffffffffffffffffffffffffffffffffffffffffffffffffffffffffff8114611a0857818110156119fa576040517f08c379a00000000000000000000000000000000000000000000000000000000081526004016119f190612535565b60405180910390fd5b611a0784848484036115b5565b5b50505050565b600073ffffffffffffffffffffffffffffffffffffffff168373ffffffffffffffffffffffffffffffffffffffff161415611a7e576040517f08c379a0000000000000000000000000000000000000000000000000000000008152600401611a7590612615565b60405180910390fd5b600073ffffffffffffffffffffffffffffffffffffffff168273ffffffffffffffffffffffffffffffffffffffff161415611aee576040517f08c379a0000000000000000000000000000000000000000000000000000000008152600401611ae590612475565b60405180910390fd5b611af98383836115a3565b60008060008573ffffffffffffffffffffffffffffffffffffffff1673ffffffffffffffffffffffffffffffffffffffff16815260200190815260200160002054905081811015611b7f576040517f08c379a0000000000000000000000000000000000000000000000000000000008152600401611b7690612555565b60405180910390fd5b8181036000808673ffffffffffffffffffffffffffffffffffffffff1673ffffffffffffffffffffffffffffffffffffffff16815260200190815260200160002081905550816000808573ffffffffffffffffffffffffffffffffffffffff1673ffffffffffffffffffffffffffffffffffffffff1681526020019081526020016000206000828254611c129190612717565b925050819055508273ffffffffffffffffffffffffffffffffffffffff168473ffffffffffffffffffffffffffffffffffffffff167fddf252ad1be2c89b69c2b068fc378daa952ba7f163c4a11628f55a4df523b3ef84604051611c769190612695565b60405180910390a3611c898484846115a8565b50505050565b6000600560009054906101000a900473ffffffffffffffffffffffffffffffffffffffff16905081600560006101000a81548173ffffffffffffffffffffffffffffffffffffffff021916908373ffffffffffffffffffffffffffffffffffffffff1602179055508173ffffffffffffffffffffffffffffffffffffffff168173ffffffffffffffffffffffffffffffffffffffff167f8be0079c531659141344cd1fd0a4f28419497f9722a3daafe3b4186f6b6457e060405160405180910390a35050565b611d5d610e89565b15611d9d576040517f08c379a0000000000000000000000000000000000000000000000000000000008152600401611d9490612595565b60405180910390fd5b6001600560146101000a81548160ff0219169083151502179055507f62e78cea01bee320cd4e420270b5ea74000d11b0c9f74754ebdbfc544b05a258611de16115ad565b604051611dee91906123fd565b60405180910390a1565b600073ffffffffffffffffffffffffffffffffffffffff168273ffffffffffffffffffffffffffffffffffffffff161415611e68576040517f08c379a0000000000000000000000000000000000000000000000000000000008152600401611e5f906125d5565b60405180910390fd5b611e74826000836115a3565b60008060008473ffffffffffffffffffffffffffffffffffffffff1673ffffffffffffffffffffffffffffffffffffffff16815260200190815260200160002054905081811015611efa576040517f08c379a0000000000000000000000000000000000000000000000000000000008152600401611ef1906124b5565b60405180910390fd5b8181036000808573ffffffffffffffffffffffffffffffffffffffff1673ffffffffffffffffffffffffffffffffffffffff168152602001908152602001600020819055508160026000828254611f5191906127c7565b92505081905550600073ffffffffffffffffffffffffffffffffffffffff168373ffffffffffffffffffffffffffffffffffffffff167fddf252ad1be2c89b69c2b068fc378daa952ba7f163c4a11628f55a4df523b3ef84604051611fb69190612695565b60405180910390a3611fca836000846115a8565b505050565b600081359050611fde81612da8565b92915050565b600081359050611ff381612dbf565b92915050565b60006020828403121561200b57600080fd5b600061201984828501611fcf565b91505092915050565b6000806040838503121561203557600080fd5b600061204385828601611fcf565b925050602061205485828601611fcf565b9150509250929050565b60008060006060848603121561207357600080fd5b600061208186828701611fcf565b935050602061209286828701611fcf565b92505060406120a386828701611fe4565b9150509250925092565b600080604083850312156120c057600080fd5b60006120ce85828601611fcf565b92505060206120df85828601611fe4565b9150509250929050565b6000602082840312156120fb57600080fd5b600061210984828501611fe4565b91505092915050565b61211b816127fb565b82525050565b61212a8161280d565b82525050565b600061213b826126fb565b6121458185612706565b9350612155818560208601612850565b61215e81612913565b840191505092915050565b6000612176600f83612706565b915061218182612924565b602082019050919050565b6000612199602383612706565b91506121a48261294d565b604082019050919050565b60006121bc601483612706565b91506121c78261299c565b602082019050919050565b60006121df602283612706565b91506121ea826129c5565b604082019050919050565b6000612202602683612706565b915061220d82612a14565b604082019050919050565b6000612225602283612706565b915061223082612a63565b604082019050919050565b6000612248600e83612706565b915061225382612ab2565b602082019050919050565b600061226b601d83612706565b915061227682612adb565b602082019050919050565b600061228e602683612706565b915061229982612b04565b604082019050919050565b60006122b1602783612706565b91506122bc82612b53565b604082019050919050565b60006122d4601083612706565b91506122df82612ba2565b602082019050919050565b60006122f7602083612706565b915061230282612bcb565b602082019050919050565b600061231a602183612706565b915061232582612bf4565b604082019050919050565b600061233d602883612706565b915061234882612c43565b604082019050919050565b6000612360602583612706565b915061236b82612c92565b604082019050919050565b6000612383602483612706565b915061238e82612ce1565b604082019050919050565b60006123a6602583612706565b91506123b182612d30565b604082019050919050565b60006123c9601f83612706565b91506123d482612d7f565b602082019050919050565b6123e881612839565b82525050565b6123f781612843565b82525050565b60006020820190506124126000830184612112565b92915050565b600060208201905061242d6000830184612121565b92915050565b6000602082019050818103600083015261244d8184612130565b905092915050565b6000602082019050818103600083015261246e81612169565b9050919050565b6000602082019050818103600083015261248e8161218c565b9050919050565b600060208201905081810360008301526124ae816121af565b9050919050565b600060208201905081810360008301526124ce816121d2565b9050919050565b600060208201905081810360008301526124ee816121f5565b9050919050565b6000602082019050818103600083015261250e81612218565b9050919050565b6000602082019050818103600083015261252e8161223b565b9050919050565b6000602082019050818103600083015261254e8161225e565b9050919050565b6000602082019050818103600083015261256e81612281565b9050919050565b6000602082019050818103600083015261258e816122a4565b9050919050565b600060208201905081810360008301526125ae816122c7565b9050919050565b600060208201905081810360008301526125ce816122ea565b9050919050565b600060208201905081810360008301526125ee8161230d565b9050919050565b6000602082019050818103600083015261260e81612330565b9050919050565b6000602082019050818103600083015261262e81612353565b9050919050565b6000602082019050818103600083015261264e81612376565b9050919050565b6000602082019050818103600083015261266e81612399565b9050919050565b6000602082019050818103600083015261268e816123bc565b9050919050565b60006020820190506126aa60008301846123df565b92915050565b60006040820190506126c560008301856123df565b81810360208301526126d78184612130565b90509392505050565b60006020820190506126f560008301846123ee565b92915050565b600081519050919050565b600082825260208201905092915050565b600061272282612839565b915061272d83612839565b9250827fffffffffffffffffffffffffffffffffffffffffffffffffffffffffffffffff03821115612762576127616128b5565b5b828201905092915050565b600061277882612839565b915061278383612839565b9250817fffffffffffffffffffffffffffffffffffffffffffffffffffffffffffffffff04831182151516156127bc576127bb6128b5565b5b828202905092915050565b60006127d282612839565b91506127dd83612839565b9250828210156127f0576127ef6128b5565b5b828203905092915050565b600061280682612819565b9050919050565b60008115159050919050565b600073ffffffffffffffffffffffffffffffffffffffff82169050919050565b6000819050919050565b600060ff82169050919050565b60005b8381101561286e578082015181840152602081019050612853565b8381111561287d576000848401525b50505050565b6000600282049050600182168061289b57607f821691505b602082108114156128af576128ae6128e4565b5b50919050565b7f4e487b7100000000000000000000000000000000000000000000000000000000600052601160045260246000fd5b7f4e487b7100000000000000000000000000000000000000000000000000000000600052602260045260246000fd5b6000601f19601f8301169050919050565b7f496e76616c696420616d6f756e742e0000000000000000000000000000000000600082015250565b7f45524332303a207472616e7366657220746f20746865207a65726f206164647260008201527f6573730000000000000000000000000000000000000000000000000000000000602082015250565b7f5061757361626c653a206e6f7420706175736564000000000000000000000000600082015250565b7f45524332303a206275726e20616d6f756e7420657863656564732062616c616e60008201527f6365000000000000000000000000000000000000000000000000000000000000602082015250565b7f4f776e61626c653a206e6577206f776e657220697320746865207a65726f206160008201527f6464726573730000000000000000000000000000000000000000000000000000602082015250565b7f45524332303a20617070726f766520746f20746865207a65726f20616464726560008201527f7373000000000000000000000000000000000000000000000000000000000000602082015250565b7f496e76616c696420616d6f756e74000000000000000000000000000000000000600082015250565b7f45524332303a20696e73756666696369656e7420616c6c6f77616e6365000000600082015250565b7f45524332303a207472616e7366657220616d6f756e742065786365656473206260008201527f616c616e63650000000000000000000000000000000000000000000000000000602082015250565b7f5061792074686520616d6f756e74206f662045746820796f752077616e74207460008201527f6f2073656e642e00000000000000000000000000000000000000000000000000602082015250565b7f5061757361626c653a2070617573656400000000000000000000000000000000600082015250565b7f4f776e61626c653a2063616c6c6572206973206e6f7420746865206f776e6572600082015250565b7f45524332303a206275726e2066726f6d20746865207a65726f2061646472657360008201527f7300000000000000000000000000000000000000000000000000000000000000602082015250565b7f4f7665724c696d697420746f6b656e3a20546f6b656e2067656e65726174696f60008201527f6e206661696c6564000000000000000000000000000000000000000000000000602082015250565b7f45524332303a207472616e736665722066726f6d20746865207a65726f20616460008201527f6472657373000000000000000000000000000000000000000000000000000000602082015250565b7f45524332303a20617070726f76652066726f6d20746865207a65726f2061646460008201527f7265737300000000000000000000000000000000000000000000000000000000602082015250565b7f45524332303a2064656372656173656420616c6c6f77616e63652062656c6f7760008201527f207a65726f000000000000000000000000000000000000000000000000000000602082015250565b7f45524332303a206d696e7420746f20746865207a65726f206164647265737300600082015250565b612db1816127fb565b8114612dbc57600080fd5b50565b612dc881612839565b8114612dd357600080fd5b5056fea26469706673582212204fb9287362a3efede5fedb5f8d0a325e9ef12b284f95916fab55a16f2f89ab2664736f6c63430008040033",
    "linkReferences": {},
    "deployedLinkReferences": {}
}